S01300005261696E626F77526F77732E7372656394
S113000056C0000071C000006FC000006DC0000049
S11300106BC0000069C0000067C0000065C000003C
S113002063C0000061C000005FC000005DC000004C
S11300305BC000007EC0000057C0000055C0000037
S113004053C0000051C000004FC000004DC000006C
S11300504BC0000049C0000047C0000045C000007C
S113006043C0000041C000003FC000003DC000008C
S11300703BC0000039C0000037C0000035C000009C
S113008033C0000031C000002FC000002C03300337
S11300903F0353036203760385039903A803BC0358
S11300A0CB03DF03EE0302041104250434041124FA
S11300B01FBECFEFD0E4DEBFCDBF11E0A0E0B1E0C2
S11300C0EEECFAE000E00BBF02C007900D92AA32FA
S11300D0B107D9F721E0AAE2B1E001C01D92AA3329
S11300E0B207E1F7D9D3F1C48BCF8BE080938100C1
S11300F08DE790E0909389008093880082E080935C
S11301006F001092850010928400809126019091D6
S11301102701A0912801B091290180933201909385
S11301203301A0933401B09335018FB780688FBF3A
S113013008951F920F920FB60F9211248F939F93DD
S1130140AF93BF938091320190913301A091340118
S1130150B09135010197A109B109809332019093BF
S11301603301A0933401B0933501892B8A2B8B2B57
S113017099F481E0809336018091260190912701C2
S1130180A0912801B0912901809332019093330109
S1130190A0933401B0933501BF91AF919F918F919A
S11301A00F900FBE0F901F901895CF92DF92EF9291
S11301B0FF9220E030E0F8E0F5B9E5B16B017C0195
S11301C0022E04C0F594E794D794C7940A94D2F706
S11301D04C2D41704E2B45B9299A2F5F3F4F203249
S11301E0310551F72A9A15B8FF90EF90DF90CF9020
S11301F00895109231011092300127E001C021507E
S11302002730C9F4599A489B0AC0809130019091D3
S11302103101806890933101809330010AC080914C
S11302203001909131018F77992790933101809318
S113023030011BB8E4CF8091300190913101969543
S1130240879590933101809330015A9A489B0AC054
S113025080913001909131018068909331018093B5
S113026030010AC080913001909131018F77992734
S113027090933101809330011BB82111C0CF0895B0
S11302802F923F924F925F926F927F928F929F92A2
S1130290AF92BF92CF92DF92EF92FF920F931F9390
S11302A0CF93DF93CDB7DEB72D970FB6F894DEBFAB
S11302B00FBECDBF8FEF9FEFAFEFB1E0809304018E
S11302C090930501A0930601B09307018FEF9FEF70
S11302D0AFEFB2E08093080190930901A0930A0163
S11302E0B0930B018FEF9FEFAFEFB4E080930C015D
S11302F090930D01A0930E01B0930F018FEF9FEF28
S1130300AFEFB8E08093100190931101A093120114
S1130310B09313018FEF9FEFAFEFB0E1809314011F
S113032090931501A0931601B09317018FEF9FEFDF
S1130330AFEFB0E28093180190931901A0931A01D2
S1130340B0931B018FEF9FEFAFEFB0E480931C01DC
S113035090931D01A0931E01B0931F018FEF9FEF97
S1130360AFEFB0E88093200190932101A093220184
S1130370B09323010F2EF4E02F2EF1E03F2EF02D49
S11303800FEF1FEF2FEF31E00D831E832F8338878C
S11303902FEF3EEF4FEF51E029833A834B835C8389
S11303A00F2E44244A94542CFEEF6F2E772473941A
S11303B0F02D0F2EFEEF8F2E99249A94A92CBB2496
S11303C0B394F02DC9C08091240190912501883EF9
S11303D033E093073CF041E050E050932501409313
S11303E0240105C00196909325018093240102D332
S11303F063E070E089D20097B1F4F10180819181CA
S1130400A281B3810D811E812F81388580239123A0
S1130410A223B32388219921AA21BB21808391831C
S1130420A283B38334C081309105B1F4F10180819A
S11304309181A281B3810D811E812F813885802312
S11304409123A223B32384219521A621B72180835C
S11304509183A283B3831BC00297C9F4F101808105
S11304609181A281B3810D811E812F8138858023E2
S11304709123A223B32329813A814B815C81822376
S11304809323A423B52380839183A283B3838B8591
S11304909D85AC85B985880C991CAA1CBB1CE89465
S11304A080F8BB248C289D28AE28BF28440C551CFA
S11304B0661C771CE89440F877244C285D286E2845
S11304C07F2849815A816B817C81440F551F661FA7
S11304D0771F4E7F772797018601042B152B262B38
S11304E0372B09831A832B833C831A8511501A876F
S11304F0111169CF88279927AA27880F991FAA1F46
S1130500BB1F9C01AD012F6F3F6F4F6F2D833E8347
S11305104F83588788279927AA274C015D013EEF0E
S1130520832A99249A94A92C2C013D0144244A94A9
S1130530542C4EEF642A8C019D010F6F1E6F2F6F98
S113054009831A832B833C8314E0210E311C24E29B
S1130550221621E03206B1F008E00A871D810E81DF
S11305600C870F8128852987CD80DE80EF80F88471
S1130570CC24DD24EE246894C0F81B871C851D87D9
S11305800C8721CF2D960FB6F894DEBF0FBECDBFDA
S1130590DF91CF911F910F91FF90EF90DF90CF905B
S11305A0BF90AF909F908F907F906F905F904F908F
S11305B03F902F90089580913901813041F018F0D7
S11305C0823099F13BC081E0809339010895809194
S11305D0240190912501803127E292073CF081E0CB
S11305E090E0909325018093240107C0880F991F00
S11305F0019690932501809324018091300184FD1C
S113060010C081E090E090932F0180932E0180919F
S1130610240190912501F1D133DE82E080933901E8
S1130620089581E080933901089580912E0190917D
S11306302F01892B29F41092390108951092390160
S113064008958091370190E08131910508F010C13F
S1130650FC01EA5BFF4F6BC181E0809337010BC162
S113066082E0809337018FEF9FEFDC0180932A01B2
S113067090932B01A0932C01B0932D01089583E056
S1130680809337018091080190910901A0910A019A
S1130690B0910B0180932A0190932B01A0932C011C
S11306A0B0932D01089584E0809337018FEF9FEF7D
S11306B0DC0180932A0190932B01A0932C01B09329
S11306C02D01089585E08093370180910C0190916C
S11306D00D01A0910E01B0910F0180932A01909316
S11306E02B01A0932C01B0932D01089586E08093F3
S11306F037018FEF9FEFDC0180932A0190932B0148
S1130700A0932C01B0932D01089587E080933701C5
S11307108091100190911101A0911201B0911301E7
S113072080932A0190932B01A0932C01B0932D0167
S1130730089588E0809337018FEF9FEFDC01809369
S11307402A0190932B01A0932C01B0932D010895BD
S113075089E0809337018091140190911501A09153
S11307601601B091170180932A0190932B01A09355
S11307702C01B0932D0108958AE0809337018FEF07
S11307809FEFDC0180932A0190932B01A0932C010D
S1130790B0932D0108958BE0809337018091180167
S11307A090911901A0911A01B0911B0180932A0123
S11307B090932B01A0932C01B0932D0108958CE00C
S11307C0809337018FEF9FEFDC0180932A01909390
S11307D02B01A0932C01B0932D0108958DE08093FB
S11307E0370180911C0190911D01A0911E01B091CF
S11307F01F0180932A0190932B01A0932C01B093A5
S11308002D0108958EE0809337018FEF9FEFDC0177
S113081080932A0190932B01A0932C01B0932D0176
S113082008958FE0809337018091200190912101F8
S1130830A0912201B091230180932A0190932B016E
S1130840A0932C01B0932D01089580E1809337018A
S11308508FEF9FEFDC0180932A0190932B01A093EB
S11308602C01B0932D01089581E08093370103C0DA
S11308701092370108958091040190910501A0918F
S11308800601B091070180932A0190932B01A09354
S11308902C01B0932D0108958FEF84B915B88EEF14
S11308A08AB981E08BB981E090E0A0E0B0E0809368
S11308B0260190932701A0932801B09329018093E6
S11308C0320190933301A0933401B09335010DDCD0
S11308D0109237018EDC80912E0190912F01892B8B
S11308E011F469DE0AC0ADDE60912A0170912B011A
S11308F080912C0190912D0158DC80913601882340
S1130900E1F310923601E6CF97FB072E16F400941C
S113091006D077FD08D011D007FC05D03EF49095A1
S113092081959F4F0895709561957F4F0895EE0FBF
S1130930FF1F0590F491E02D0994AA1BBB1B51E104
S113094007C0AA1FBB1FA617B70710F0A61BB70B3B
S1130950881F991F5A95A9F780959095BC01CD01E0
S113096008958F929F92AF92BF92CF92DF92EF92AF
S1130970FF92CF93DF93EC01688179818A819B8117
S1130980611571058105910521F464E279ED8BE52A
S113099097E02DE133EF41E050E03AD049015A01AC
S11309A09B01AC01A7EAB1E44FD06B017C01ACEE32
S11309B0B4EFA501940154D0C60ED71EE81EF91E4B
S11309C0F7FE06C081E0C81AD108E10880E8F80AF9
S11309D0C882D982EA82FB82C6019F77DF91CF91D8
S11309E0FF90EF90DF90CF90BF90AF909F908F904B
S11309F00895B7CF80E091E0B4CFA0E0B0E0809359
S1130A00000190930101A0930201B09303010895A2
S1130A10052E97FB16F400940FD057FD05D024D073
S1130A2007FC02D046F408C05095409530952195B6
S1130A303F4F4F4F5F4F0895909580957095619506
S1130A407F4F8F4F9F4F089531D0A59F900DB49F36
S1130A50900DA49F800D911D11240895B7FFF4CF2C
S1130A60F3DF821B930B0895A1E21A2EAA1BBB1B72
S1130A70FD010DC0AA1FBB1FEE1FFF1FA217B30766
S1130A80E407F50720F0A21BB30BE40BF50B661F7C
S1130A90771F881F991F1A9469F760957095809540
S1130AA090959B01AC01BD01CF010895A29FB001B7
S1130AB0B39FC001A39F700D811D1124911DB29F8E
S1110AC0700D811D1124911D0895F894FFCF2F
S1130ACE01000000FFFFFF01FFFFFF02FFFFFF0415
S1130ADEFFFFFF08FFFFFF10FFFFFF20FFFFFF4098
S10D0AEEFFFFFF800100010000007B
S9030000FC
