S01300005261696E626F77526F77732E7372656394
S113000056C0000072C0000070C000006EC0000046
S11300106CC000006AC0000068C0000066C0000038
S113002064C0000062C0000060C000005EC0000048
S11300305CC000007FC0000058C0000056C0000033
S113004054C0000052C0000050C000004EC0000068
S11300504CC000004AC0000048C0000046C0000078
S113006044C0000042C0000040C000003EC0000088
S11300703CC000003AC0000038C0000036C0000098
S113008034C0000032C0000030C00000F202F602AA
S11300900503190328033C034B035F036E03820328
S11300A09103A503B403C803D703EB03FA03112494
S11300B01FBECFEFD0E4DEBFCDBF11E0A0E0B1E0C2
S11300C0E6E2F1E100E00BBF02C007900D92AA3313
S11300D0B107D9F721E0AAE3B1E001C01D92AD3424
S11300E0B207E1F72AD70C9491088ACF8BE080936A
S11300F081008DE790E0909389008093880082E0EE
S113010080936F00109285001092840080913501D5
S113011090913601A0913701B09138018093430149
S113012090934401A0934501B09346018FB7806832
S11301308FBF08951F920F920FB60F9211248F93C1
S11301409F93AF93BF938091430190914401A091F9
S11301504501B09146010197A109B109809343017A
S113016090934401A0934501B0934601892B8A2BB7
S11301708B2B99F481E08093470180913501909114
S11301803601A0913701B0913801809343019093D7
S11301904401A0934501B0934601BF91AF919F9153
S11301A08F910F900FBE0F901F901895CF92DF92F2
S11301B0EF92FF9220E030E0F8E0F5B9E5B16B0191
S11301C07C01022E04C0F594E794D794C7940A9452
S11301D0D2F74C2D41704E2B45B9299A2F5F3F4FD2
S11301E02032310551F72A9A15B8FF90EF90DF902D
S11301F0CF900895109242011092410127E001C06E
S113020021502730C9F4599A489B0AC08091410172
S113021090914201806890934201809341010AC009
S113022080914101909142018F77992790934201E7
S1130230809341011BB8E4CF809141019091420128
S11302409695879590934201809341015A9A489BD1
S11302500AC08091410190914201806890934201CB
S1130260809341010AC080914101909142018F77AE
S1130270992790934201809341011BB82111C0CF6B
S113028008952F923F924F925F926F927F928F9236
S11302909F92AF92BF92CF92DF92EF92FF920F9311
S11302A01F93CF93DF93CDB7DEB728970FB6F8949B
S11302B0DEBF0FBECDBF8FEF9FEFAFEFB1E08093F6
S11302C0130190931401A0931501B09316018FEFBD
S11302D09FEFAFEFB2E08093170190931801A093C2
S11302E01901B0931A018FEF9FEFAFEFB4E0809341
S11302F01B0190931C01A0931D01B0931E018FEF6D
S11303009FEFAFEFB8E080931F0190932001A0937B
S11303102101B09322018FEF9FEFAFEFB0E1809303
S1130320230190932401A0932501B09326018FEF1C
S11303309FEFAFEFB0E28093270190932801A09341
S11303402901B0932A018FEF9FEFAFEFB0E48093C0
S11303502B0190932C01A0932D01B0932E018FEFCC
S11303609FEFAFEFB0E880932F0190933001A093FB
S11303703101B09332010F2EF3E12F2EF1E03F2E25
S1130380F02D2FEF3FEF4FEF51E029833A834B835A
S11303905C830F2E88248A94FEEF9F2EA82CBB2406
S11303A0B394F02D0F2ECC24CA94DC2CFEEFEF2E48
S11303B0FF24F394F02D96C0809133019091340181
S11303C0803137E293073CF041E050E05093340130
S11303D04093330105C00196909334018093330117
S11303E035D681709078992324F401978E6F9F6F8E
S11303F001960097B9F4EF81F88580819181A281FB
S1130400B38129813A814B815C8182239323A42384
S1130410B5238C219D21AE21BF2180839183A283AA
S1130420B38318C00197B1F4EF81F885808191817D
S1130430A281B38129813A814B815C8182239323F8
S1130440A423B52388219921AA21BB2180839183E8
S1130450A283B3838D81902FA12FB22DCC0CDD1CF0
S1130460EE1CFF1CE894C0F8FF24C428D528E62815
S1130470F728880C991CAA1CBB1CE89480F8BB24A0
S113048084289528A628B7283A9409F095CF2F8078
S1130490388488279927AA274C015D01880C991C68
S11304A0AA1CBB1CA50194012F6F3F6F4F6F2983BA
S11304B03A834B835C8388249924AA2475016401BC
S11304C0CC24CA94DC2C3EEFE32A88248A944EEF91
S11304D0942AA82C54E0250E311C83E3281681E0CD
S11304E03806C1F098E09E83A981AD830A811B81FF
S11304F0BC8149805A806B807C80442455246624C6
S1130500689440F8C1016894332433F898878F8342
S11305102B2E52CF28960FB6F894DEBF0FBECDBF58
S1130520DF91CF911F910F91FF90EF90DF90CF90CB
S1130530BF90AF909F908F907F906F905F904F90FF
S11305403F902F90089580914B01813041F018F035
S1130550823089F139C081E080934B010895809104
S1130560330190913401803127E292073CF081E01D
S113057090E0909334018093330105C001969093E9
S11305803401809333018091410184FD10C081E0E6
S113059090E09093400180933F01809133019091CA
S11305A0340157D56EDE82E080934B01089581E0DB
S11305B080934B01089580913F0190914001892BD4
S11305C029F410924B01089510924B0108958091E3
S11305D0480190E08131910508F010C1FC01EA5B0B
S11305E0FF4FE5C481E0809348010BC182E0809312
S11305F048018FEF9FEFDC0180933B0190933C0116
S1130600A0933D01B0933E01089583E08093480197
S11306108091170190911801A0911901B0911A01CC
S113062080933B0190933C01A0933D01B0933E0124
S1130630089584E0809348018FEF9FEFDC0180935D
S11306403B0190933C01A0933D01B0933E0108957A
S113065085E08093480180911B0190911C01A09139
S11306601D01B0911E0180933B0190933C01A09326
S11306703D01B0933E01089586E0809348018FEFD9
S11306809FEFDC0180933B0190933C01A0933D01DB
S1130690B0933E01089587E08093480180911F0143
S11306A090912001A0912101B091220180933B01FE
S11306B090933C01A0933D01B0933E01089588E0DE
S11306C0809348018FEF9FEFDC0180933B0190936F
S11306D03C01A0933D01B0933E01089589E08093CD
S11306E048018091230190912401A0912501B091AA
S11306F0260180933B0190933C01A0933D01B0936C
S11307003E0108958AE0809348018FEF9FEFDC015A
S113071080933B0190933C01A0933D01B0933E0133
S113072008958BE0809348018091270190912801DE
S1130730A0912901B0912A0180933B0190933C013F
S1130740A0933D01B0933E0108958CE0809348014D
S11307508FEF9FEFDC0180933B0190933C01A093CA
S11307603D01B0933E0108958DE08093480180914E
S11307702B0190912C01A0912D01B0912E01809319
S11307803B0190933C01A0933D01B0933E01089539
S11307908EE0809348018FEF9FEFDC0180933B0153
S11307A090933C01A0933D01B0933E0108958FE0E6
S11307B08093480180912F0190913001A0913101E3
S11307C0B091320180933B0190933C01A0933D0191
S11307D0B0933E01089580E1809348018FEF9FEF2D
S11307E0DC0180933B0190933C01A0933D01B093C5
S11307F03E01089581E08093480103C010924801AE
S113080008958091130190911401A0911501B09164
S1130810160180933B0190933C01A0933D01B0935A
S11308203E0108950F931F9380914901823009F48A
S113083006C230F4882369F0813009F442C00FC243
S1130840843009F4ECC108F402C2853009F4EFC124
S113085006C2E0913A01F0E0EE0FFF1FEE0FFF1F1A
S1130860ED5EFE4F80819181A281B38140910D01A3
S113087050910E0160910F0170911001482359238A
S11308806A237B23411551056105714019F41092C7
S1130890080113C04091090150910A0160910B01B4
S11308A070910C0184239523A623B7230097A105F7
S11308B0B14019F481E08093080181E080934901FB
S11308C0D5C18091410187FD78C020913A0122234E
S11308D009F4CCC184E080934901215020933A016A
S11308E080910801811133C030E0F901EE0FFF1F40
S11308F0EE0FFF1FED5EFE4F80819181A281B381D7
S1130900A0FFB0C1F901EE0FFF1FEE0FFF1FE95E5C
S1130910FE4F80819181A281B3819E7FAE7FA160D1
S113092080839183A283B383F901EE0FFF1FEE0F3F
S1130930FF1FED5EFE4F80819181A281B3819E7F76
S1130940AE7F916080839183A283B3838BC1813016
S113095009F088C130E0F901EE0FFF1FEE0FFF1F11
S1130960ED5EFE4F80819181A281B38190FF7AC1B7
S1130970F901EE0FFF1FEE0FFF1FE95EFE4F8081AE
S11309809181A281B3819E7FAE7F916080839183A8
S1130990A283B383F901EE0FFF1FEE0FFF1FED5E7D
S11309A0FE4F80819181A281B3819E7FAE7FA16041
S11309B080839183A283B38355C180FD78C0209145
S11309C03A01273008F052C185E0809349012F5F36
S11309D020933A0180910801811133C030E0F9017C
S11309E0EE0FFF1FEE0FFF1FED5EFE4F8081918122
S11309F0A281B381A0FF36C1F901EE0FFF1FEE0FF4
S1130A00FF1FE15FFE4F80819181A281B3819E7FB0
S1130A10AE7FA16080839183A283B383F901EE0F3B
S1130A20FF1FEE0FFF1FED5EFE4F80819181A281BB
S1130A30B3819E7FAE7F916080839183A283B383D1
S1130A4011C1813009F00EC130E0F901EE0FFF1F32
S1130A50EE0FFF1FED5EFE4F80819181A281B38175
S1130A6090FF00C1F901EE0FFF1FEE0FFF1FE15FC2
S1130A70FE4F80819181A281B3819E7FAE7F916080
S1130A8080839183A283B383220F331F220F331FEA
S1130A90F901ED5EFE4F80819181A281B3819E7F39
S1130AA0AE7FA16080839183A283B383DBC085FD85
S1130AB058C080911101909112018038910508F07D
S1130AC0D5C0880F991F9093120180931101409112
S1130AD00D0150910E0160910F0170911001DB0125
S1130AE0CA01880F991FAA1FBB1F6627482B592BC1
S1130AF06A2B7B2B616088279927AA27842B952B47
S1130B00A62BB72B80930D0190930E01A0930F0198
S1130B10B09310014091090150910A0160910B01B9
S1130B2070910C01DB01CA01880F991FAA1FBB1F1A
S1130B305527482B592B6A2B7B2B516088279927E3
S1130B40AA27842B952BA62BB72B8093090190936E
S1130B500A01A0930B01B0930C0182E08093490138
S1130B6099C086FD83C08091110190911201823059
S1130B70910508F47BC023E020934901969587955D
S1130B80909312018093110180910D0190910E01B7
S1130B90A0910F01B0911001AC01BD01759567954D
S1130BA057954795AA27842B952BA62BB72BA0687E
S1130BB0442755276627842B952BA62BB72B809388
S1130BC00D0190930E01A0930F01B0931001409179
S1130BD0090150910A0160910B0170910C018A0185
S1130BE09B0111277595679557954795402B512B78
S1130BF0622B732B5068B595A79597958795882791
S1130C009927AA27842B952BA62BB72B8093090110
S1130C1090930A01A0930B01B0930C0123C080911F
S1130C20410187FF37C081E0809349011FC0809153
S1130C30410180FF2FC081E08093490117C080915A
S1130C40410185FF27C081E0809349010FC0809155
S1130C50410186FF1FC081E08093490107C01092C3
S1130C60490118C0809149018130A1F48091330178
S1130C7090913401803127E292073CF081E090E0CA
S1130C80909334018093330105C00196909334010D
S1130C90809333011F910F91089580914C0181300D
S1130CA041F018F0823001F13AC081E080934C01A8
S1130CB037C18091040190910501009761F48091FE
S1130CC0060190910701909305018093040182E04D
S1130CD080934C0118C101979093050180930401FE
S1130CE081E080934C011CC1809104019091050125
S1130CF0009761F48091060190910701909305019A
S1130D008093040181E080934C010AC10197909380
S1130D1005018093040182E080934C01F4C0109299
S1130D204C01089580910801811123C0E0913A019A
S1130D30F0E0EE0FFF1FEE0FFF1FED5EFE4F408150
S1130D4051816281738180910D0190910E01A09176
S1130D500F01B091100180959095A095B095BF6F4B
S1130D6084239523A623B72380839183A283B3830B
S1130D700895813009F0E0C0E0913A01F0E0EE0F0F
S1130D80FF1FEE0FFF1FED5EFE4F40815181628118
S1130D9073818091090190910A01A0910B01B09196
S1130DA00C0180959095A095B095BF6F84239523F1
S1130DB0A623B72380839183A283B383089580916C
S1130DC0080181111FC0E0913A01F0E0EE0FFF1F0E
S1130DD0EE0FFF1FED5EFE4F4081518162817381F2
S1130DE080910D0190910E01A0910F01B09110011D
S1130DF0BB27842B952BA62BB72B80839183A283AF
S1130E00B38320C08130F1F4E0913A01F0E0EE0FB9
S1130E10FF1FEE0FFF1FED5EFE4F40815181628187
S1130E2073818091090190910A01A0910B01B09105
S1130E300C01BB27842B952BA62BB72B8083918386
S1130E40A283B38380914101909142019C01217856
S1130E5033272138310531F480769927803691057E
S1130E6009F46AC080914901813009F065C080911C
S1130E700801811123C0E0913A01F0E0EE0FFF1F59
S1130E80EE0FFF1FED5EFE4F408151816281738141
S1130E9080910D0190910E01A0910F01B09110016C
S1130EA080959095A095B095BF6F84239523A62334
S1130EB0B72380839183A283B38308958130E1F5BE
S1130EC0E0913A01F0E0EE0FFF1FEE0FFF1FED5E21
S1130ED0FE4F40815181628173818091090190911B
S1130EE00A01A0910B01B0910C0180959095A095F9
S1130EF0B095BF6F84239523A623B7238083918362
S1130F00A283B38308952091040130910501809157
S1130F100601909107012817390709F093CF4FCFA5
S1130F2020910401309105018091060190910701FF
S1130F302817390709F4F6CE08958FEF84B915B848
S1130F408EEF8AB981E08BB981E090E0A0E0B0E057
S1130F508093350190933601A0933701B093380103
S1130F608093430190934401A0934501B0934601BB
S1130F70BDD8109248013ED980913F019091400123
S1130F80892B11F4E0DA0CC022DB87DE4BDC6091A4
S1130F903B0170913C0180913D0190913E0106D945
S1130FA0809147018823E1F310924701E4CFEE0FCB
S1130FB0FF1F0590F491E02D09948F929F92AF92B8
S1130FC0BF92CF92DF92EF92FF92CF93DF93EC0127
S1130FD0688179818A819B816115710581059105FB
S1130FE021F464E279ED8BE597E02DE133EF41E004
S1130FF050E03AD049015A019B01AC01A7EAB1E49F
S11310004FD06B017C01ACEEB4EFA501940154D038
S1131010C60ED71EE81EF91EF7FE06C081E0C81AE8
S1131020D108E10880E8F80AC882D982EA82FB8202
S1131030C6019F77DF91CF91FF90EF90DF90CF9023
S1131040BF90AF909F908F900895B7CF80E091E0CC
S1131050B4CFA0E0B0E08093000190930101A0938D
S11310600201B09303010895052E97FB16F4009432
S11310700FD057FD05D024D007FC02D046F408C099
S113108050954095309521953F4F4F4F5F4F0895B0
S113109090958095709561957F4F8F4F9F4F0895E0
S11310A031D0A59F900DB49F900DA49F800D911DEC
S11310B011240895B7FFF4CFF3DF821B930B089537
S11310C0A1E21A2EAA1BBB1BFD010DC0AA1FBB1F48
S11310D0EE1FFF1FA217B307E407F50720F0A21BBA
S11310E0B30BE40BF50B661F771F881F991F1A9427
S11310F069F760957095809590959B01AC01BD0151
S1131100CF010895A29FB001B39FC001A39F700DAA
S1131110811D1124911DB29F700D811D1124911DFB
S10911200895F894FFCFCE
S113112601000000AF00AF00FF0001000100000154
S1131136010100FFFFFF01FFFFFF02FFFFFF04FFA6
S1131146FFFF08FFFFFF10FFFFFF20FFFFFF40FF29
S10D1156FFFF80010001000000000B
S9030000FC
