:1000000056C0000073C0000071C000006FC0000047
:100010006DC000006BC0000069C0000067C0000038
:1000200065C0000063C0000061C000005FC0000048
:100030005DC0000080C0000059C0000057C0000033
:1000400055C0000053C0000051C000004FC0000068
:100050004DC000004BC0000049C0000047C0000078
:1000600045C0000043C0000041C000003FC0000088
:100070003DC000003BC0000039C0000037C0000098
:1000800035C0000033C0000031C00000F402F802A7
:1000900007031B032A033E034D036103700384031C
:1000A0009303A703B603CA03D903ED03FC0311248A
:1000B0001FBECFEFD0E4DEBFCDBF11E0A0E0B1E0C6
:1000C000E8E9F5E100E00BBF02C007900D92AE3405
:1000D000B107D9F721E0AEE4B1E001C01D92A1362D
:1000E000B207E1F70E94D3090C94CA0A89CF8BE0CA
:1000F000809381008DE790E0909389008093880041
:1001000082E080936F0010928500109284008091AD
:10011000490190914A01A0914B01B0914C0180930B
:10012000570190935801A0935901B0935A018FB78A
:1001300080688FBF08951F920F920FB60F921124FF
:100140008F939F93AF93BF938091570190915801E4
:10015000A0915901B0915A010197A109B109809369
:10016000570190935801A0935901B0935A01892BDC
:100170008A2B8B2B99F481E080935B01809149015C
:1001800090914A01A0914B01B0914C01809357018D
:1001900090935801A0935901B0935A01BF91AF9128
:1001A0009F918F910F900FBE0F901F9018951092F6
:1001B00056011092550127E001C021502730C9F4A3
:1001C000599A489B0AC080915501909156018068C8
:1001D00090935601809355010AC0809155019091EA
:1001E00056018F77992790935601809355011BB83C
:1001F000E4CF809155019091560196958795909303
:100200005601809355015A9A489B0AC08091550126
:1002100090915601806890935601809355010AC0D1
:1002200080915501909156018F77992790935601AF
:10023000809355011BB82111C0CF0895CF92DF9252
:10024000EF92FF9220E030E0F8E0F5B9E5B16B0104
:100250007C01022E04C0F594E794D794C7940A94C5
:10026000D2F74C2D41704E2B45B9299A2F5F3F4F45
:100270002032310551F72A9A15B8FF90EF90DF90A0
:10028000CF9008952F923F924F925F926F927F92FC
:100290008F929F92AF92BF92CF92DF92EF92FF9296
:1002A0000F931F93CF93DF93CDB7DEB728970FB689
:1002B000F894DEBF0FBECDBF8FEF9FEFAFEFB1E081
:1002C0008093270190932801A0932901B0932A01DC
:1002D0008FEF9FEFAFEFB2E080932B0190932C0153
:1002E000A0932D01B0932E018FEF9FEFAFEFB4E0FD
:1002F00080932F0190933001A0933101B09332018C
:100300008FEF9FEFAFEFB8E080933301909334010C
:10031000A0933501B09336018FEF9FEFAFEFB0E1BF
:100320008093370190933801A0933901B0933A013B
:100330008FEF9FEFAFEFB0E280933B0190933C01D2
:10034000A0933D01B0933E018FEF9FEFAFEFB0E47C
:1003500080933F0190934001A0934101B0934201EB
:100360008FEF9FEFAFEFB0E880934301909344018C
:10037000A0934501B09346010F2EF7E22F2EF1E036
:100380003F2EF02D2FEF3FEF4FEF51E029833A83BF
:100390004B835C830F2E88248A94FEEF9F2EA82C1B
:1003A000BB24B394F02D0F2ECC24CA94DC2CFEEF8A
:1003B000EF2EFF24F394F02D97C080914701909188
:1003C0004801803137E293073CF041E050E0509320
:1003D00048014093470105C00196909348018093DE
:1003E00047010E945F0A81709078992324F4019755
:1003F0008E6F9F6F01960097B9F4EF81F885808129
:100400009181A281B38129813A814B815C818223D0
:100410009323A423B5238C219D21AE21BF2180836A
:100420009183A283B38318C00197B1F4EF81F8855B
:1004300080819181A281B38129813A814B815C8144
:1004400082239323A423B52388219921AA21BB21A8
:1004500080839183A283B3838D81902FA12FB22DAE
:10046000CC0CDD1CEE1CFF1CE894C0F8FF24C42853
:10047000D528E628F728880C991CAA1CBB1CE894F0
:1004800080F8BB2484289528A628B7283A9409F038
:1004900094CF2F80388488279927AA274C015D01A3
:1004A000880C991CAA1CBB1CA50194012F6F3F6FDF
:1004B0004F6F29833A834B835C8388249924AA2431
:1004C00075016401CC24CA94DC2C3EEFE32A882415
:1004D0008A944EEF942AA82C54E0250E311C87E410
:1004E000281681E03806C1F098E09E83A981AD838B
:1004F0000A811B81BC8149805A806B807C804424A6
:1005000055246624689440F8C1016894332433F874
:1005100098878F832B2E51CF28960FB6F894DEBF85
:100520000FBECDBFDF91CF911F910F91FF90EF9044
:10053000DF90CF90BF90AF909F908F907F906F9003
:100540005F904F903F902F90089580915F01813090
:1005500041F018F0823089F139C081E080935F0169
:1005600008958091470190914801803127E29207D8
:100570003CF081E090E0909348018093470105C0F2
:10058000019690934801809347018091550184FD25
:1005900010C081E090E090935401809353018091CA
:1005A0004701909148018ED76DDE82E080935F0114
:1005B000089581E080935F010895809153019091A7
:1005C0005401892B29F410925F01089510925F0164
:1005D000089580915C0190E08131910508F010C18F
:1005E000FC01EA5BFF4F1CC781E080935C010BC1FB
:1005F00082E080935C018FEF9FEFDC0180934F01DD
:1006000090935001A0935101B0935201089583E05B
:1006100080935C0180912B0190912C01A0912D0180
:10062000B0912E0180934F0190935001A0935101FE
:10063000B0935201089584E080935C018FEF9FEFA7
:10064000DC0180934F0190935001A0935101B0932E
:100650005201089585E080935C0180912F01909173
:100660003001A0913101B091320180934F019093FC
:100670005001A0935101B0935201089586E08093F8
:100680005C018FEF9FEFDC0180934F01909350014D
:10069000A0935101B0935201089587E080935C01CB
:1006A0008091330190913401A0913501B0913601D0
:1006B00080934F0190935001A0935101B093520148
:1006C000089588E080935C018FEF9FEFDC018093B9
:1006D0004F0190935001A0935101B093520108959E
:1006E00089E080935C018091370190913801A0915D
:1006F0003901B0913A0180934F0190935001A0933A
:100700005101B093520108958AE080935C018FEF0C
:100710009FEFDC0180934F0190935001A093510112
:10072000B093520108958BE080935C0180913B016E
:1007300090913C01A0913D01B0913E0180934F0109
:1007400090935001A0935101B093520108958CE011
:1007500080935C018FEF9FEFDC0180934F019093BA
:100760005001A0935101B093520108958DE0809300
:100770005C0180913F0190914001A0914101B091B5
:10078000420180934F0190935001A0935101B09387
:10079000520108958EE080935C018FEF9FEFDC01A2
:1007A00080934F0190935001A0935101B093520157
:1007B00008958FE080935C01809143019091440102
:1007C000A0914501B091460180934F019093500153
:1007D000A0935101B0935201089580E180935C0190
:1007E0008FEF9FEFDC0180934F0190935001A09316
:1007F0005101B0935201089581E080935C0103C0E0
:1008000010925C0108958091270190912801A09198
:100810002901B0912A0180934F0190935001A09338
:100820005101B093520108958F929F92AF92BF925F
:10083000CF92DF92EF92FF920F931F93CF93DF93AC
:1008400080915D01823009F426C430F4882369F078
:10085000813009F442C02FC4843009F40CC408F478
:1008600022C4853009F40FC426C4E0914E01F0E0A3
:10087000EE0FFF1FEE0FFF1FE95DFE4F808191819C
:10088000A281B38140912101509122016091230105
:1008900070912401482359236A237B234115510574
:1008A0006105714019F41092080113C040911D01B7
:1008B00050911E0160911F017091200184239523A6
:1008C000A623B7230097A105B14019F481E08093D6
:1008D000080181E080935D01F5C38091550187FD9A
:1008E000CCC0E0914E01EE2309F4ECC384E0809388
:1008F0005D01E150E0934E018091080181115DC0DE
:10090000F0E08091190190911A01A0911B01B09122
:100910001C01EF01CC0FDD1FCC0FDD1FC95DDE4FC9
:10092000488159816A817B81482359236A237B232B
:10093000452B462B472B09F4C1C34091150150911B
:1009400016016091170170911801EF01CC0FDD1FA6
:10095000CC0FDD1FC55DDE4F088119812A813B81E7
:10096000082B192B2A2B3B2B6A017B01C094D094B6
:10097000E094F0940C211D212E213F21088319833E
:100980002A833B83EE0FFF1FEE0FFF1FE95DFE4F33
:100990000081118122813381402B512B622B732BDB
:1009A00080959095A095B095482359236A237B2381
:1009B000408351836283738381C3813009F07EC396
:1009C000F0E08091150190911601A0911701B0916E
:1009D0001801EF01CC0FDD1FCC0FDD1FC95DDE4F0D
:1009E000488159816A817B81482359236A237B236B
:1009F000452B462B472B09F461C3409119015091B7
:100A00001A0160911B0170911C01EF01CC0FDD1FD9
:100A1000CC0FDD1FC55DDE4F088119812A813B8126
:100A2000082B192B2A2B3B2B6A017B01C094D094F5
:100A3000E094F0940C211D212E213F21088319837D
:100A40002A833B83EE0FFF1FEE0FFF1FE95DFE4F72
:100A50000081118122813381402B512B622B732B1A
:100A600080959095A095B095482359236A237B23C0
:100A7000408351836283738321C380FDCCC0E091A6
:100A80004E01E73008F01EC385E080935D01EF5F03
:100A9000E0934E018091080181115DC0F0E08091EA
:100AA000190190911A01A0911B01B0911C01EF0155
:100AB000CC0FDD1FCC0FDD1FC95DDE4F4881598192
:100AC0006A817B81482359236A237B23452B462B4C
:100AD000472B09F4F3C24091150150911601609122
:100AE000170170911801EF01CC0FDD1FCC0FDD1F36
:100AF000CD5DDE4F088119812A813B81082B192B9E
:100B00002A2B3B2B6A017B01C094D094E094F09493
:100B10000C211D212E213F21088319832A833B8329
:100B2000EE0FFF1FEE0FFF1FE95DFE4F00811181E9
:100B300022813381402B512B622B732B8095909512
:100B4000A095B095482359236A237B234083518382
:100B500062837383B3C2813009F0B0C2F0E0809148
:100B6000150190911601A0911701B0911801EF01A4
:100B7000CC0FDD1FCC0FDD1FC95DDE4F48815981D1
:100B80006A817B81482359236A237B23452B462B8B
:100B9000472B09F493C24091190150911A016091B9
:100BA0001B0170911C01EF01CC0FDD1FCC0FDD1F6D
:100BB000CD5DDE4F088119812A813B81082B192BDD
:100BC0002A2B3B2B6A017B01C094D094E094F094D3
:100BD0000C211D212E213F21088319832A833B8369
:100BE000EE0FFF1FEE0FFF1FE95DFE4F0081118129
:100BF00022813381402B512B622B732B8095909552
:100C0000A095B095482359236A237B2340835183C1
:100C10006283738353C285FD27C1209125013091E2
:100C200026012038310508F04DC282E080935D0135
:100C30008091190190911A01A0911B01B0911C01A2
:100C4000880F991FAA1FBB1F8093190190931A0147
:100C5000A0931B01B0931C01409115015091160106
:100C60006091170170911801440F551F661F771F7F
:100C7000409315015093160160931701709318016A
:100C8000220F331F30932601209325012091080164
:100C900021113BC020914E0130E0F901EE0FFF1F02
:100CA000EE0FFF1FE95DFE4F40815181628173812C
:100CB00084239523A623B723892B8A2B8B2B09F416
:100CC0005FC0F901EE0FFF1FEE0FFF1FE95DFE4F42
:100CD0008091110190911201A0911301B091140122
:100CE000482359236A237B2380910D0190910E01A3
:100CF000A0910F01B0911001482B592B6A2B7B2B2F
:100D000040835183628373833BC02130C9F52091B6
:100D10004E0130E0F901EE0FFF1FEE0FFF1FE95DFE
:100D2000FE4F80819181A281B381482359236A2398
:100D30007B23452B462B472B19F1220F331F220F04
:100D4000331FF901E95DFE4F4091110150911201ED
:100D5000609113017091140184239523A623B72376
:100D60004091090150910A0160910B0170910C01B1
:100D7000842B952BA62BB72B80839183A283B383DF
:100D80008091110190911201A0911301B091140171
:100D9000880F991FAA1FBB1F816080931101909338
:100DA0001201A0931301B093140180910901909155
:100DB0000A01A0910B01B0910C01880F991FAA1F85
:100DC000BB1F8093090190930A01A0930B01B0937C
:100DD0000C0180910D0190910E01A0910F01B09135
:100DE0001001880F991FAA1FBB1F80930D019093BC
:100DF0000E01A0930F01B0931001809121019091F9
:100E00002201A0912301B0912401AC01BD01440F46
:100E1000551F661F771FAA27842B952BA62BB72B50
:100E20008093210190932201A0932301B093240188
:100E300080911D0190911E01A0911F01B091200190
:100E4000AC01BD01440F551F661F771F9927842BE6
:100E5000952BA62BB72B80931D0190931E01A09379
:100E60001F01B09320012AC186FD2CC1E09125010C
:100E7000F0912601E230F10508F424C183E080936B
:100E80005D018091190190911A01A0911B01B0910F
:100E90001C01B595A7959795879580931901909317
:100EA0001A01A0931B01B0931C01C0901501D090B2
:100EB0001601E0901701F0901801F594E794D7948B
:100EC000C794C0921501D0921601E0921701F092DA
:100ED000180140911101509112016091130170911C
:100EE0001401759567955795479570684093110162
:100EF00050931201609313017093140180900901C3
:100F000090900A01A0900B01B0900C01B594A794A9
:100F1000979487948092090190920A01A0920B0104
:100F2000B0920C0100910D0110910E0120910F0162
:100F300030911001359527951795079500930D0170
:100F400010930E0120930F0130931001F695E79551
:100F5000F0932601E0932501E0910801E11123C0FF
:100F6000E0914E01F0E0EF01CC0FDD1FCC0FDD1F53
:100F7000C95DDE4F088119812A813B81802391233D
:100F8000A223B323892B8A2B8B2BC1F1402351231E
:100F900062237323842A952AA62AB72A88829982F3
:100FA000AA82BB822BC0E13049F5E0914E01F0E00E
:100FB000DF01AA0FBB1FAA0FBB1FA95DBE4F8D91FA
:100FC0009D910D90BC91A02DC822D922EA22FB222E
:100FD000CD28CE28CF2891F0EE0FFF1FEE0FFF1F78
:100FE000E95DFE4F482359236A237B23042B152BED
:100FF000262B372B00831183228333838091210199
:1010000090912201A0912301B0912401AC01BD0176
:101010004427552777277595679557954795AA27AC
:10102000842B952BA62BB72B809321019093220123
:10103000A0932301B093240180911D0190911E0182
:10104000A0911F01B0912001AC01BD01442766278A
:10105000772775956795579547959927842B952BF5
:10106000A62BB72B80931D0190931E01A0931F0107
:10107000B093200123C08091550187FF37C081E0E4
:1010800080935D011FC08091550180FF2FC081E0DA
:1010900080935D0117C08091550185FF27C081E0D5
:1010A00080935D010FC08091550186FF1FC081E0D4
:1010B00080935D0107C010925D0118C080915D01B1
:1010C0008130A1F48091470190914801803127E25D
:1010D00092073CF081E090E09093480180934701B3
:1010E00005C001969093480180934701DF91CF910D
:1010F0001F910F91FF90EF90DF90CF90BF90AF9036
:101100009F908F90089580916001813041F018F098
:10111000823001F13AC081E08093600137C1809153
:10112000040190910501009761F48091060190916E
:101130000701909305018093040182E08093600190
:1011400018C10197909305018093040181E0809379
:1011500060011CC18091040190910501009761F428
:1011600080910601909107019093050180930401FD
:1011700081E0809360010AC10197909305018093FB
:10118000040182E080936001F4C010926001089530
:1011900080910801811123C0E0914E01F0E0EE0F33
:1011A000FF1FEE0FFF1FE95DFE4F408151816281FD
:1011B00073818091210190912201A0912301B0912E
:1011C000240180959095A095B095BF6F84239523B9
:1011D000A623B72380839183A283B38308958130AC
:1011E00009F0E0C0E0914E01F0E0EE0FFF1FEE0FBE
:1011F000FF1FE95DFE4F40815181628173818091C3
:101200001D0190911E01A0911F01B09120018095B8
:101210009095A095B095BF6F84239523A623B723FF
:1012200080839183A283B383089580910801811103
:101230001FC0E0914E01F0E0EE0FFF1FEE0FFF1F09
:10124000E95DFE4F4081518162817381809121016E
:1012500090912201A0912301B0912401BB27842BFE
:10126000952BA62BB72B80839183A283B38320C0B9
:101270008130F1F4E0914E01F0E0EE0FFF1FEE0F30
:10128000FF1FE95DFE4F4081518162817381809132
:101290001D0190911E01A0911F01B0912001BB275B
:1012A000842B952BA62BB72B80839183A283B383AA
:1012B00080915501909156019C0121783327213866
:1012C000310531F4807699278036910509F46AC09A
:1012D00080915D01813009F065C080910801811124
:1012E00023C0E0914E01F0E0EE0FFF1FEE0FFF1F55
:1012F000E95DFE4F408151816281738180912101BE
:1013000090912201A0912301B091240180959095A4
:10131000A095B095BF6F84239523A623B723808320
:101320009183A283B38308958130E1F5E0914E016A
:10133000F0E0EE0FFF1FEE0FFF1FE95DFE4F408153
:1013400051816281738180911D0190911E01A09154
:101350001F01B091200180959095A095B095BF6F29
:1013600084239523A623B72380839183A283B38309
:10137000089520910401309105018091060190911A
:1013800007012817390709F093CF4FCF20910401A7
:1013900030910501809106019091070128173907C6
:1013A00009F4F6CE08958FEF84B915B88EEF8AB997
:1013B00081E08BB981E090E0A0E0B0E0809349014A
:1013C00090934A01A0934B01B0934C018093570135
:1013D00090935801A0935901B0935A010E9477004D
:1013E00010925C010E94D7008091530190915401AA
:1013F000892B11F4AAD80DC0ECD885DE15DA6091DE
:101400004F017091500180915101909152010E94C1
:101410001E0180915B018823E1F310925B01E2CF12
:10142000EE0FFF1F0590F491E02D09948F929F928B
:10143000AF92BF92CF92DF92EF92FF92CF93DF9362
:10144000EC01688179818A819B8161157105810533
:10145000910521F464E279ED8BE597E02DE133EF1E
:1014600041E050E03AD049015A019B01AC01A7EAA2
:10147000B1E44FD06B017C01ACEEB4EFA501940157
:1014800054D0C60ED71EE81EF91EF7FE06C081E036
:10149000C81AD108E10880E8F80AC882D982EA822D
:1014A000FB82C6019F77DF91CF91FF90EF90DF9095
:1014B000CF90BF90AF909F908F900895B7CF80E06E
:1014C00091E0B4CFA0E0B0E08093000190930101DF
:1014D000A0930201B09303010895052E97FB16F423
:1014E00000940FD057FD05D024D007FC02D046F45D
:1014F00008C050954095309521953F4F4F4F5F4F15
:10150000089590958095709561957F4F8F4F9F4F6F
:10151000089531D0A59F900DB49F900DA49F800D8C
:10152000911D11240895B7FFF4CFF3DF821B930BB5
:101530000895A1E21A2EAA1BBB1BFD010DC0AA1F14
:10154000BB1FEE1FFF1FA217B307E407F50720F02C
:10155000A21BB30BE40BF50B661F771F881F991FA7
:101560001A9469F760957095809590959B01AC01F0
:10157000BD01CF010895A29FB001B39FC001A39FF9
:10158000700D811D1124911DB29F700D811D1124BC
:08159000911D0895F894FFCFAE
:1015980001000000AF00AF00FF00010200000201DF
:1015A80000FFFCFCFF00010000000001000001003A
:1015B80001000001010100FFFFFF01FFFFFF02FF23
:1015C800FFFF04FFFFFF08FFFFFF10FFFFFF20FFE3
:0E15D800FFFF40FFFFFF800100010000000048
:00000001FF
