:1000000056C0000073C0000071C000006FC0000047
:100010006DC000006BC0000069C0000067C0000038
:1000200065C0000063C0000061C000005FC0000048
:100030005DC0000080C0000059C0000057C0000033
:1000400055C0000053C0000051C000004FC0000068
:100050004DC000004BC0000049C0000047C0000078
:1000600045C0000043C0000041C000003FC0000088
:100070003DC000003BC0000039C0000037C0000098
:1000800035C0000033C0000031C000003A0645060C
:100090005406680677068B069A06AE06BD06D1069C
:1000A000E006F4060307170726073A074907112455
:1000B0001FBECFEFD0E4DEBFCDBF11E0A0E0B1E0C6
:1000C000ECE5FCE100E00BBF02C007900D92AA37FF
:1000D000B107D9F721E0AAE7B1E001C01D92AD3820
:1000E000B207E1F70E943F0D0C942C0E89CF8BE0F4
:1000F000809381008DE790E0909389008093880041
:1001000082E080936F0010928500109284008091AD
:100110004D0190914E01A0914F01B09150018093FB
:10012000840190938501A0938601B09387018FB7D6
:1001300080688FBF08951F920F920FB60F921124FF
:100140008F939F93AF93BF9380918401909185018A
:10015000A0918601B09187010197A109B10980930F
:10016000840190938501A0938601B0938701892B28
:100170008A2B8B2B99F481E08093880180914D012B
:1001800090914E01A0914F01B09150018093840154
:1001900090938501A0938601B0938701BF91AF91A1
:1001A0009F918F910F900FBE0F901F90189518166A
:1001B00019069CF440E050E077E063E00BC00000DB
:1001C0002150310921153105D1F74F5F5F4F481795
:1001D000590719F0272F362FF2CF0895469882B984
:1001E000479A0000479882E090E0E1CF089581E0CF
:1001F000F5CF0895813118F48158F0CF08958155D5
:10020000EDCF089584E690E0D2DF88E3E7DF86E073
:10021000E5DF8FE0E3DF81E0E1DF8AE090E0C7CF58
:100220000895469A82B9479A0000479881E090E085
:10023000BECF08950F931F93CF93DF93182FEB0139
:10024000D6DF8881882359F001E0010F812FD2DFAA
:100250008991E7DF8881882311F0102FF5CFDF9196
:10026000CF911F910F91089510928B0110928901E7
:1002700010928A0110928C0180EC9DE5A0E0B0E024
:100280008093490190934A01A0934B01B0934C0194
:1002900021E030E030934801209347018FEF9FEF3A
:1002A000AFEFB1E08093270190932801A09329013B
:1002B000B0932A018FEF9FEFAFEFB2E080932B0155
:1002C00090932C01A0932D01B0932E018FEF9FEFFF
:1002D000AFEFB4E080932F0190933001A0933101F0
:1002E000B09332018FEF9FEFAFEFB8E0809333010F
:1002F00090933401A0933501B09336018FEF9FEFB7
:10030000AFEFB0E18093370190933801A0933901AA
:10031000B0933A018FEF9FEFAFEFB0E280933B01D4
:1003200090933C01A0933D01B0933E018FEF9FEF6E
:10033000AFEFB0E480933F0190934001A09341015F
:10034000B09342018FEF9FEFAFEFB0E8809343018E
:1003500090934401A0934501B0934601109283010C
:10036000109282011092810110927D0110927E0103
:1003700010927F011092800110927C01309326012F
:100380002093250180E090E0A1E0B1E0809321017D
:1003900090932201A0932301B093240180E091E087
:1003A000DC0180931D0190931E01A0931F01B09367
:1003B000200180E090E0A1E0B0E0809319019093EB
:1003C0001A01A0931B01B0931C0180E091E0A0E012
:1003D000B0E08093150190931601A0931701B0939C
:1003E00018018FEF9CEFACEFBFEF8093110190935A
:1003F0001201A0931301B093140180E092E0A1E0F8
:10040000B0E080930D0190930E01A0930F01B09383
:10041000100180E091E0A2E0B0E0809309019093A8
:100420000A01A0930B01B0930C018FEF8093080198
:1004300086E990E09093070180930601909305016F
:100440008093040108952F923F924F925F926F9292
:100450007F928F929F92AF92BF92CF92DF92EF9254
:10046000FF920F931F93CF93DF93CDB7DEB76497BF
:100470000FB6F894DEBF0FBECDBFF0908301E7E268
:10048000F1E027E431E081919191A191B191AC012A
:10049000BD01442755277727452B462B472B39F09D
:1004A0008827AA27BB27892B8A2B8B2B09F4F39447
:1004B000E217F30741F700912701109128012091DD
:1004C000290130912A0180902B0190902C01A0905D
:1004D0002D01B0902E0140902F015090300160907E
:1004E0003101709032018091330190913401A091DB
:1004F0003501B091360189839A83AB83BC838091A7
:10050000370190913801A0913901B0913A018D8362
:100510009E83AF83B88780913B0190913C01A0916D
:100520003D01B0913E0189879A87AB87BC87809156
:100530003F0190914001A0914101B09142018D870E
:100540009E87AF87B88B8091430190914401A09121
:100550004501B0914601898B9A8BAB8BBC8BE8E04F
:1005600040E050E860E070E080E090E0A0E8B0E0BB
:100570002E2E3F2C6C017D01C022D122E222F322DB
:10058000CD28CE28CF2809F053C06C017D01C820AA
:10059000D920EA20FB20CD28CE28CF2809F048C05A
:1005A0006C017D01C420D520E620F720CD28CE287F
:1005B000CF28F1F5C980DA80EB80FC80C822D922EF
:1005C000EA22FB22CD28CE28CF2891F5CD80DE80EF
:1005D000EF80F884C822D922EA22FB22CD28CE2837
:1005E000CF2831F5C984DA84EB84FC84C822D9226F
:1005F000EA22FB22CD28CE28CF28D1F4CD84DE8478
:10060000EF84F888C822D922EA22FB22CD28CE28FE
:10061000CF2871F4C988DA88EB88FC88C822D922EF
:10062000EA22FB22CD28CE28CF2811F433945DC0D6
:100630006A017B01C022D122E222F322CD28CE28FA
:10064000CF2809F052C075016401C422D522E622E8
:10065000F722CD28CE28CF2809F047C073016201C8
:10066000C422D522E622F722CD28CE28CF28E9F5CC
:10067000C980DA80EB80FC80C422D522E622F722F2
:10068000CD28CE28CF2889F5CD80DE80EF80F88474
:10069000C422D522E622F722CD28CE28CF2829F55C
:1006A000C984DA84EB84FC84C422D522E622F722B2
:1006B000CD28CE28CF28C9F4CD84DE84EF84F888F5
:1006C000C422D522E622F722CD28CE28CF2869F4ED
:1006D000C988DA88EB88FC88C422D522E622F72272
:1006E000CD28CE28CF2809F43394B595A7959795B2
:1006F000879575956795579547952A9409F03ACF50
:100700003092830164960FB6F894DEBF0FBECDBF62
:10071000DF91CF911F910F91FF90EF90DF90CF90DD
:10072000BF90AF909F908F907F906F905F904F9011
:100730003F902F90089510927B0110927A0127E04C
:1007400001C021502730C9F4599A489B0AC08091B2
:100750007A0190917B01806890937B0180937A016C
:100760000AC080917A0190917B018F7799279093AD
:100770007B0180937A011BB8E4CF80917A0190913C
:100780007B019695879590937B0180937A015A9A85
:10079000489B0AC080917A0190917B018068909378
:1007A0007B0180937A010AC080917A0190917B014C
:1007B0008F77992790937B0180937A011BB8211141
:1007C000C0CF0895CF92DF92EF92FF9220E030E009
:1007D000F8E0F5B9E5B16B017C01022E04C0F59497
:1007E000E794D794C7940A94D2F74C2D41704E2BBE
:1007F00045B9299A2F5F3F4F2032310551F72A9A88
:1008000015B8FF90EF90DF90CF9008952F923F9210
:100810004F925F926F927F928F929F92AF92BF9210
:10082000CF92DF92EF92FF920F931F93CF93DF93BC
:10083000CDB7DEB728970FB6F894DEBF0FBECDBF99
:100840008FEF9FEFAFEFB1E08093270190932801E6
:10085000A0932901B0932A018FEF9FEFAFEFB2E091
:1008600080932B0190932C01A0932D01B0932E0126
:100870008FEF9FEFAFEFB4E080932F0190933001A3
:10088000A0933101B09332018FEF9FEFAFEFB8E04B
:100890008093330190933401A0933501B0933601D6
:1008A0008FEF9FEFAFEFB0E1809337019093380166
:1008B000A0933901B0933A018FEF9FEFAFEFB0E211
:1008C00080933B0190933C01A0933D01B0933E0186
:1008D0008FEF9FEFAFEFB0E480933F019093400123
:1008E000A0934101B09342018FEF9FEFAFEFB0E8CB
:1008F0008093430190934401A0934501B093460136
:100900000F2EF7E22F2EF1E03F2EF02D2FEF3FEFCD
:100910004FEF51E029833A834B835C830F2E882469
:100920008A94FEEF9F2EA82CBB24B394F02D0F2E9B
:10093000CC24CA94DC2CFEEFEF2EFF24F394F02D90
:1009400097C08091470190914801803137E2930729
:100950003CF041E050E0509348014093470105C00E
:10096000019690934801809347010E94C10D8170C8
:100970009078992324F401978E6F9F6F01960097CA
:10098000B9F4EF81F88580819181A281B3812981B9
:100990003A814B815C8182239323A423B5238C214C
:1009A0009D21AE21BF2180839183A283B38318C090
:1009B0000197B1F4EF81F88580819181A281B381A3
:1009C00029813A814B815C8182239323A423B5231F
:1009D00088219921AA21BB2180839183A283B3839B
:1009E0008D81902FA12FB22DCC0CDD1CEE1CFF1C95
:1009F000E894C0F8FF24C428D528E628F728880CF6
:100A0000991CAA1CBB1CE89480F8BB248428952858
:100A1000A628B7283A9409F094CF2F8038848827E5
:100A20009927AA274C015D01880C991CAA1CBB1CA4
:100A3000A50194012F6F3F6F4F6F29833A834B833A
:100A40005C8388249924AA2475016401CC24CA9467
:100A5000DC2C3EEFE32A88248A944EEF942AA82CBB
:100A600054E0250E311C87E4281681E03806C1F0D9
:100A700098E09E83A981AD830A811B81BC81498056
:100A80005A806B807C80442455246624689440F806
:100A9000C1016894332433F898878F832B2E51CF6C
:100AA00028960FB6F894DEBF0FBECDBFDF91CF9171
:100AB0001F910F91FF90EF90DF90CF90BF90AF907C
:100AC0009F908F907F906F905F904F903F902F906E
:100AD0000895CF93DF93CDB7DEB76C970FB6F89438
:100AE000DEBF0FBECDBF80918B01823009F443C0C1
:100AF00028F4882351F0813089F077C0833009F4DD
:100B000069C0843009F46AC070C0AEDB6DE671E084
:100B100081E090DB81E080938B016AC08091470186
:100B200090914801803127E292073CF081E090E00B
:100B3000909348018093470105C001969093480126
:100B40008093470180917A0184FD11C081E090E09B
:100B50009093820180938101809147019091480197
:100B60000E94C40D53DE82E080938B016FC081E050
:100B700080938B013DC08091490190914A01A091E1
:100B80004B01B0914C01181619061A061B0644F0C9
:100B900083E080938B01109282011092810153DCDB
:100BA0008091490190914A01A0914B01B0914C0173
:100BB0000197A109B1098093490190934A01A0933B
:100BC0004B01B0934C0180918B01813089F08330CF
:100BD000A9F03CC084E080938B0138C080917A01F9
:100BE00081FD34C010928B0131C010928B012EC058
:100BF0006FEF7EEF8FE79FEFE5DD28C06FEF7EEFB1
:100C00008FE79FEFDFDDF3DA8DE0E1E5F1E0DE0174
:100C1000509601900D928A95E1F78FE0EEE5F1E0B4
:100C2000DE01119601900D928A95E1F7BE01605F99
:100C30007F4F81E0FFDABE016F5F7F4F80E1FADA1C
:100C40008CE0D8DA80918301805DEBDA6C960FB688
:100C5000F894DEBF0FBECDBFDF91CF910895809194
:100C6000890190E08131910508F017C1FC01EA5B30
:100C7000FF4F38C78091810190918201892B09F43F
:100C80001FC181E0809389010BC182E080938901BB
:100C90008FEF9FEFDC0180937D0190937E01A09305
:100CA0007F01B0938001089583E080938901809152
:100CB0002B0190912C01A0912D01B0912E018093D8
:100CC0007D0190937E01A0937F01B09380010895F0
:100CD00084E0809389018FEF9FEFDC0180937D0199
:100CE00090937E01A0937F01B0938001089585E0E9
:100CF0008093890180912F0190913001A091310161
:100D0000B091320180937D0190937E01A0937F0189
:100D1000B0938001089586E0809389018FEF9FEF63
:100D2000DC0180937D0190937E01A0937F01B093BD
:100D30008001089587E0809389018091330190912B
:100D40003401A0913501B091360180937D019093DB
:100D50007E01A0937F01B0938001089588E0809385
:100D600089018FEF9FEFDC0180937D0190937E01DD
:100D7000A0937F01B0938001089589E08093890159
:100D80008091370190913801A0913901B0913A01D9
:100D900080937D0190937E01A0937F01B0938001A9
:100DA00008958AE0809389018FEF9FEFDC018093A3
:100DB0007D0190937E01A0937F01B09380010895FF
:100DC0008BE08093890180913B0190913C01A0913F
:100DD0003D01B0913E0180937D0190937E01A093EF
:100DE0007F01B093800108958CE0809389018FEF9B
:100DF0009FEFDC0180937D0190937E01A0937F01A2
:100E0000B093800108958DE08093890180913F0126
:100E100090914001A0914101B091420180937D01E8
:100E200090937E01A0937F01B093800108958EE09E
:100E3000809389018FEF9FEFDC0180937D01909378
:100E40007E01A0937F01B093800108958FE080938D
:100E500089018091430190914401A0914501B09195
:100E6000460180937D0190937E01A0937F01B09312
:100E70008001089580E1809389018FEF9FEFDC016D
:100E800080937D0190937E01A0937F01B0938001B8
:100E9000089581E08093890103C01092890108952B
:100EA0008091270190912801A0912901B0912A01F8
:100EB00080937D0190937E01A0937F01B093800188
:100EC00008958F929F92AF92BF92CF92DF92EF924E
:100ED000FF920F931F93CF93DF9380918A0182300B
:100EE00009F42DC430F4882369F0813009F449C035
:100EF00036C4843009F413C408F429C4853009F4D5
:100F000016C42DC48091810190918201892B09F42E
:100F100041C4E0917C01F0E0EE0FFF1FEE0FFF1FD8
:100F2000E95DFE4F80819181A281B38140912101D1
:100F3000509122016091230170912401482359238B
:100F40006A237B23411551056105714019F4109204
:100F5000080113C040911D0150911E0160911F01B5
:100F60007091200184239523A623B7230097A10520
:100F7000B14019F481E08093080181E080938A01F7
:100F8000F5C380917A0187FDCCC0E0917C01EE230E
:100F900009F4ECC384E080938A01E150E0937C0182
:100FA0008091080181115DC0F0E08091190190915C
:100FB0001A01A0911B01B0911C01EF01CC0FDD1FA4
:100FC000CC0FDD1FC95DDE4F488159816A817B816D
:100FD000482359236A237B23452B462B472B09F4AF
:100FE000C1C3409115015091160160911701709194
:100FF0001801EF01CC0FDD1FCC0FDD1FC55DDE4FEB
:10100000088119812A813B81082B192B2A2B3B2B24
:101010006A017B01C094D094E094F0940C211D21CE
:101020002E213F21088319832A833B83EE0FFF1F64
:10103000EE0FFF1FE95DFE4F008111812281338198
:10104000402B512B622B732B80959095A095B095DA
:10105000482359236A237B2340835183628373830C
:1010600081C3813009F07EC3F0E080911501909139
:101070001601A0911701B0911801EF01CC0FDD1FEF
:10108000CC0FDD1FC95DDE4F488159816A817B81AC
:10109000482359236A237B23452B462B472B09F4EE
:1010A00061C34091190150911A0160911B01709127
:1010B0001C01EF01CC0FDD1FCC0FDD1FC55DDE4F26
:1010C000088119812A813B81082B192B2A2B3B2B64
:1010D0006A017B01C094D094E094F0940C211D210E
:1010E0002E213F21088319832A833B83EE0FFF1FA4
:1010F000EE0FFF1FE95DFE4F0081118122813381D8
:10110000402B512B622B732B80959095A095B09519
:10111000482359236A237B2340835183628373834B
:1011200021C380FDCCC0E0917C01E73008F01EC3F4
:1011300085E080938A01EF5FE0937C018091080154
:1011400081115DC0F0E08091190190911A01A09188
:101150001B01B0911C01EF01CC0FDD1FCC0FDD1F77
:10116000C95DDE4F488159816A817B8148235923BB
:101170006A237B23452B462B472B09F4F3C240916E
:101180001501509116016091170170911801EF013E
:10119000CC0FDD1FCC0FDD1FCD5DDE4F0881198127
:1011A0002A813B81082B192B2A2B3B2B6A017B01BF
:1011B000C094D094E094F0940C211D212E213F2165
:1011C000088319832A833B83EE0FFF1FEE0FFF1F57
:1011D000E95DFE4F0081118122813381402B512B2B
:1011E000622B732B80959095A095B0954823592339
:1011F0006A237B234083518362837383B3C281302C
:1012000009F0B0C2F0E08091150190911601A09113
:101210001701B0911801EF01CC0FDD1FCC0FDD1FBE
:10122000C95DDE4F488159816A817B8148235923FA
:101230006A237B23452B462B472B09F493C240910D
:10124000190150911A0160911B0170911C01EF016D
:10125000CC0FDD1FCC0FDD1FCD5DDE4F0881198166
:101260002A813B81082B192B2A2B3B2B6A017B01FE
:10127000C094D094E094F0940C211D212E213F21A4
:10128000088319832A833B83EE0FFF1FEE0FFF1F96
:10129000E95DFE4F0081118122813381402B512B6A
:1012A000622B732B80959095A095B0954823592378
:1012B0006A237B23408351836283738353C285FDFA
:1012C00027C120912501309126012038310508F0F1
:1012D0004DC282E080938A018091190190911A0198
:1012E000A0911B01B0911C01880F991FAA1FBB1F61
:1012F0008093190190931A01A0931B01B0931C01D4
:1013000040911501509116016091170170911801DB
:10131000440F551F661F771F409315015093160108
:101320006093170170931801220F331F3093260129
:10133000209325012091080121113BC020917C01BF
:1013400030E0F901EE0FFF1FEE0FFF1FE95DFE4FCA
:10135000408151816281738184239523A623B72321
:10136000892B8A2B8B2B09F45FC0F901EE0FFF1F2D
:10137000EE0FFF1FE95DFE4F809111019091120168
:10138000A0911301B0911401482359236A237B23B0
:1013900080910D0190910E01A0910F01B09110016B
:1013A000482B592B6A2B7B2B408351836283738399
:1013B0003BC02130C9F520917C0130E0F901EE0FEE
:1013C000FF1FEE0FFF1FE95DFE4F80819181A2811B
:1013D000B381482359236A237B23452B462B472B74
:1013E00019F1220F331F220F331FF901E95DFE4F60
:1013F00040911101509112016091130170911401FB
:1014000084239523A623B7234091090150910A0113
:1014100060910B0170910C01842B952BA62BB72B9F
:1014200080839183A283B3838091110190911201F3
:10143000A0911301B0911401880F991FAA1FBB1F1F
:1014400081608093110190931201A0931301B093D6
:1014500014018091090190910A01A0910B01B091B2
:101460000C01880F991FAA1FBB1F8093090190933D
:101470000A01A0930B01B0930C0180910D01909192
:101480000E01A0910F01B0911001880F991FAA1FA2
:10149000BB1F80930D0190930E01A0930F01B09399
:1014A00010018091210190912201A0912301B0911E
:1014B0002401AC01BD01440F551F661F771FAA27E9
:1014C000842B952BA62BB72B80932101909322017F
:1014D000A0932301B093240180911D0190911E01DE
:1014E000A0911F01B0912001AC01BD01440F551F17
:1014F000661F771F9927842B952BA62BB72B8093DC
:101500001D0190931E01A0931F01B09320012AC1D9
:1015100086FD2CC1E0912501F0912601E230F10514
:1015200008F424C183E080938A018091190190918D
:101530001A01A0911B01B0911C01B595A795979533
:1015400087958093190190931A01A0931B01B09382
:101550001C01C0901501D0901601E0901701F09089
:101560001801F594E794D794C794C0921501D092CE
:101570001601E0921701F09218014091110150916B
:10158000120160911301709114017595679557953B
:1015900047957068409311015093120160931301B5
:1015A000709314018090090190900A01A0900B01A2
:1015B000B0900C01B594A7949794879480920901F8
:1015C00090920A01A0920B01B0920C0100910D01C2
:1015D00010910E0120910F01309110013595279542
:1015E0001795079500930D0110930E0120930F019D
:1015F00030931001F695E795F0932601E0932501CD
:10160000E0910801E11123C0E0917C01F0E0EF01DD
:10161000CC0FDD1FCC0FDD1FC95DDE4F08811981A6
:101620002A813B8180239123A223B323892B8A2BF8
:101630008B2BC1F14023512362237323842A952AE3
:10164000A62AB72A88829982AA82BB822BC0E1305F
:1016500049F5E0917C01F0E0DF01AA0FBB1FAA0F62
:10166000BB1FA95DBE4F8D919D910D90BC91A02D8A
:10167000C822D922EA22FB22CD28CE28CF2891F0F9
:10168000EE0FFF1FEE0FFF1FE95DFE4F48235923AA
:101690006A237B23042B152B262B372B00831183E6
:1016A000228333838091210190912201A091230113
:1016B000B0912401AC01BD014427552777277595CA
:1016C000679557954795AA27842B952BA62BB72B63
:1016D0008093210190932201A0932301B0932401D0
:1016E00080911D0190911E01A0911F01B0912001D8
:1016F000AC01BD01442766277727759567955795F7
:1017000047959927842B952BA62BB72B80931D01EA
:1017100090931E01A0931F01B093200123C08091DC
:101720007A0187FF37C081E080938A011FC08091D2
:101730007A0180FF2FC081E080938A0117C08091D9
:101740007A0185FF27C081E080938A010FC08091D4
:101750007A0186FF1FC081E080938A0107C0109242
:101760008A0118C080918A018130A1F480914701DB
:1017700090914801803127E292073CF081E090E0AF
:10178000909348018093470105C0019690934801CA
:1017900080934701DF91CF911F910F91FF90EF90C0
:1017A000DF90CF90BF90AF909F908F9008958091E1
:1017B0008C01813079F018F0823039F141C080918C
:1017C000810190918201892B09F447C181E08093C6
:1017D0008C012AC18091040190910501009761F468
:1017E0008091060190910701909305018093040177
:1017F00082E080938C0124C101979093050180932E
:10180000040181E080938C010FC1809104019091CB
:101810000501009761F48091060190910701909372
:1018200005018093040181E080938C01FDC0019744
:10183000909305018093040182E080938C0100C1A4
:1018400010928C01089580910801811123C0E091CC
:101850007C01F0E0EE0FFF1FEE0FFF1FE95DFE4F72
:101860004081518162817381809121019091220197
:10187000A0912301B091240180959095A095B095F9
:10188000BF6F84239523A623B72380839183A283EC
:10189000B3830895813009F0E0C0E0917C01F0E06D
:1018A000EE0FFF1FEE0FFF1FE95DFE4F40815181DC
:1018B0006281738180911D0190911E01A0911F0191
:1018C000B091200180959095A095B095BF6F84232D
:1018D0009523A623B72380839183A283B38308959E
:1018E0008091080181111FC0E0917C01F0E0EE0FB2
:1018F000FF1FEE0FFF1FE95DFE4F408151816281A6
:1019000073818091210190912201A0912301B091D6
:101910002401BB27842B952BA62BB72B8083918387
:10192000A283B38320C08130F1F4E0917C01F0E028
:10193000EE0FFF1FEE0FFF1FE95DFE4F408151814B
:101940006281738180911D0190911E01A0911F0100
:10195000B0912001BB27842B952BA62BB72B80831E
:101960009183A283B38380917A0190917B019C0142
:10197000217833272138310531F480769927803654
:10198000910509F46AC080918A01813009F065C02F
:1019900080910801811123C0E0917C01F0E0EE0FFD
:1019A000FF1FEE0FFF1FE95DFE4F408151816281F5
:1019B00073818091210190912201A0912301B09126
:1019C000240180959095A095B095BF6F84239523B1
:1019D000A623B72380839183A283B38308958130A4
:1019E000E1F5E0917C01F0E0EE0FFF1FEE0FFF1F2D
:1019F000E95DFE4F408151816281738180911D01BB
:101A000090911E01A0911F01B091200180959095A9
:101A1000A095B095BF6F84239523A623B723808319
:101A20009183A283B383089520910401309105012D
:101A300080910601909107012817390771F403CFAF
:101A400020910401309105018091060190910701D8
:101A50002817390709F087CF43CF08950E949B03C9
:101A600038D8FDD8A4DE2DDA60917D0170917E0119
:101A700080917F01909180010C94E20308958FEF93
:101A800081B912B884B915B887B918B88EEF8AB978
:101A900081E08BB90E94020181E090E0A0E0B0E01B
:101AA00080934D0190934E01A0934F01B09350014C
:101AB0008093840190938501A0938601B093870160
:101AC0000E94770010928B011092890110928A0176
:101AD00010928C01C3DF809188018823E1F310927A
:101AE0008801F8CFEE0FFF1F0590F491E02D0994C7
:101AF0008F929F92AF92BF92CF92DF92EF92FF921E
:101B0000CF93DF93EC01688179818A819B81611594
:101B100071058105910521F464E279ED8BE597E08B
:101B20002DE133EF41E050E03AD049015A019B01E9
:101B3000AC01A7EAB1E44FD06B017C01ACEEB4EF8D
:101B4000A501940154D0C60ED71EE81EF91EF7FE5B
:101B500006C081E0C81AD108E10880E8F80AC88206
:101B6000D982EA82FB82C6019F77DF91CF91FF90F5
:101B7000EF90DF90CF90BF90AF909F908F9008959F
:101B8000B7CF80E091E0B4CFA0E0B0E08093000157
:101B900090930101A0930201B09303010895052ED3
:101BA00097FB16F400940FD057FD05D024D007FC06
:101BB00002D046F408C050954095309521953F4F8E
:101BC0004F4F5F4F089590958095709561957F4F29
:101BD0008F4F9F4F089531D0A59F900DB49F900DCA
:101BE000A49F800D911D11240895B7FFF4CFF3DF5A
:101BF000821B930B0895A1E21A2EAA1BBB1BFD01A9
:101C00000DC0AA1FBB1FEE1FFF1FA217B307E407DB
:101C1000F50720F0A21BB30BE40BF50B661F771F33
:101C2000881F991F1A9469F7609570958095909513
:101C30009B01AC01BD01CF010895A29FB001B39FEC
:101C4000C001A39F700D811D1124911DB29F700DC5
:0C1C5000811D1124911D0895F894FFCF10
:101C5C000100000096009600FF0001020000020146
:101C6C0000FFFCFCFF00010000000001000001006F
:101C7C0001000001010100FFFFFF01FFFFFF02FF58
:101C8C00FFFF04FFFFFF08FFFFFF10FFFFFF20FF18
:101C9C00FFFF40FFFFFF800100C05D00000100005E
:101CAC0000546F74616C20526F77733A2000526548
:101CBC007365743A205072657373204100507265DD
:0A1CCC0073732053746172740000FA
:00000001FF
