:100000004EC0000069C0000067C0000065C000006D
:1000100063C0000061C000005FC000005DC0000060
:100020005BC0000059C0000057C0000055C0000070
:1000300053C0000076C000004FC000004DC000005B
:100040004BC0000049C0000047C0000045C0000090
:1000500043C0000041C000003FC000003DC00000A0
:100060003BC0000039C0000037C0000035C00000B0
:1000700033C0000031C000002FC000002DC00000C0
:100080002BC0000029C0000027C0000081018501AD
:100090009501A501B501C501D501E501F5011124C1
:1000A0001FBECFEFD0E4DEBFCDBF11E0A0E0B1E0D6
:1000B000E0EBF4E000E00BBF02C007900D92A63029
:1000C000B107D9F721E0A6E0B1E001C01D92A63149
:1000D000B207E1F79DD1EAC193CF8BE08093810015
:1000E0008DE790E0909389008093880082E0809370
:1000F0006F0010928500109284008091020190910F
:100100000301A0910401B091050180930E01909329
:100110000F01A0931001B09311018FB780688FBFBA
:1001200008951F920F920FB60F9211248F939F93F1
:10013000AF93BF9380910E0190910F01A091100198
:10014000B09111010197A109B10980930E0190931B
:100150000F01A0931001B0931101892B8A2B8B2BD7
:1001600099F481E080931201809102019091030142
:10017000A0910401B091050180930E0190930F01AD
:10018000A0931001B0931101BF91AF919F918F91F6
:100190000F900FBE0F901F901895CF92DF92EF92A5
:1001A000FF9220E030E0F8E0F5B9E5B16B017C01A9
:1001B000022E04C0F594E794D794C7940A94D2F71A
:1001C0004C2D41704E2B45B9299A2F5F3F4F20325D
:1001D000310551F72A9A15B8FF90EF90DF90CF9034
:1001E000089510920D0110920C0127E001C02150DA
:1001F0002730C9F4599A489B0AC080910C0190910C
:100200000D01806890930D0180930C010AC08091CC
:100210000C0190910D018F77992790930D01809398
:100220000C011BB8E4CF80910C0190910D019695C3
:10023000879590930D0180930C015A9A489B0AC0B0
:1002400080910C0190910D01806890930D01809335
:100250000C010AC080910C0190910D018F779927B4
:1002600090930D0180930C011BB82111C0CF08950C
:1002700080911501813041F018F0823059F133C07E
:1002800081E0809315010895809100019091010112
:100290008F3F2FE7920739F481E090E090930101BE
:1002A0008093000105C001969093010180930001A5
:1002B00080910C0184FD0AC081E090E090930B01D5
:1002C00080930A0182E080931501089581E0809374
:1002D0001501089580910A0190910B01892B29F451
:1002E000109215010895109215010895809113013F
:1002F00090E08930910508F088C0FC01EA5BFF4F6F
:10030000CFC081E080931301089580E090E0A0E0E9
:10031000B1E08093060190930701A0930801B09388
:10032000090182E080931301089580E090E0A0E04D
:10033000B2E08093060190930701A0930801B09367
:10034000090183E080931301089580E090E0A0E02C
:10035000B4E08093060190930701A0930801B09345
:10036000090184E080931301089580E090E0A0E00B
:10037000B8E08093060190930701A0930801B09321
:10038000090185E080931301089580E090E0A0E0EA
:10039000B0E18093060190930701A0930801B09308
:1003A000090186E080931301089580E090E0A0E0C9
:1003B000B0E28093060190930701A0930801B093E7
:1003C000090187E080931301089580E090E0A0E0A8
:1003D000B0E48093060190930701A0930801B093C5
:1003E000090188E080931301089580E090E0A0E087
:1003F000B0E88093060190930701A0930801B093A1
:10040000090181E08093130108951092130108956A
:100410008FEF84B915B88EEF8AB981E08BB982E08D
:1004200090E0A0E0B0E08093020190930301A093DC
:100430000401B093050180930E0190930F01A093E6
:100440001001B093110149DE109213010F2EFCED43
:10045000CF2EFBEBDF2EF7E6EF2EF12CF02DC1DED9
:1004600080910A0190910B01892B11F401DF11C0D9
:100470003DDF8091060190910701A0910801B091A4
:100480000901C82AD92AEA2AFB2AC701B60185DE52
:10049000FF24809112018823E1F310921201DFCF33
:1004A000EE0FFF1F0590F491E02D0994F894FFCF13
:0604B00001000100000044
:00000001FF
